{
  "_format": "hh-sol-artifact-1",
  "contractName": "Burger",
  "sourceName": "contracts/Burger.sol",
  "abi": [
    {
      "inputs": [],
      "stateMutability": "nonpayable",
      "type": "constructor"
    },
    {
      "anonymous": false,
      "inputs": [
        {
          "indexed": true,
          "internalType": "address",
          "name": "owner",
          "type": "address"
        },
        {
          "indexed": true,
          "internalType": "address",
          "name": "approved",
          "type": "address"
        },
        {
          "indexed": true,
          "internalType": "uint256",
          "name": "tokenId",
          "type": "uint256"
        }
      ],
      "name": "Approval",
      "type": "event"
    },
    {
      "anonymous": false,
      "inputs": [
        {
          "indexed": true,
          "internalType": "address",
          "name": "owner",
          "type": "address"
        },
        {
          "indexed": true,
          "internalType": "address",
          "name": "operator",
          "type": "address"
        },
        {
          "indexed": false,
          "internalType": "bool",
          "name": "approved",
          "type": "bool"
        }
      ],
      "name": "ApprovalForAll",
      "type": "event"
    },
    {
      "anonymous": false,
      "inputs": [
        {
          "indexed": true,
          "internalType": "address",
          "name": "_to",
          "type": "address"
        },
        {
          "indexed": true,
          "internalType": "uint256",
          "name": "_id",
          "type": "uint256"
        },
        {
          "indexed": true,
          "internalType": "uint8",
          "name": "_boxType",
          "type": "uint8"
        }
      ],
      "name": "MintNFT",
      "type": "event"
    },
    {
      "anonymous": false,
      "inputs": [
        {
          "indexed": true,
          "internalType": "address",
          "name": "previousOwner",
          "type": "address"
        },
        {
          "indexed": true,
          "internalType": "address",
          "name": "newOwner",
          "type": "address"
        }
      ],
      "name": "OwnershipTransferred",
      "type": "event"
    },
    {
      "anonymous": false,
      "inputs": [
        {
          "indexed": false,
          "internalType": "address",
          "name": "account",
          "type": "address"
        }
      ],
      "name": "Paused",
      "type": "event"
    },
    {
      "anonymous": false,
      "inputs": [
        {
          "indexed": true,
          "internalType": "address",
          "name": "from",
          "type": "address"
        },
        {
          "indexed": true,
          "internalType": "address",
          "name": "to",
          "type": "address"
        },
        {
          "indexed": true,
          "internalType": "uint256",
          "name": "tokenId",
          "type": "uint256"
        }
      ],
      "name": "Transfer",
      "type": "event"
    },
    {
      "anonymous": false,
      "inputs": [
        {
          "indexed": false,
          "internalType": "address",
          "name": "account",
          "type": "address"
        }
      ],
      "name": "Unpaused",
      "type": "event"
    },
    {
      "anonymous": false,
      "inputs": [
        {
          "indexed": false,
          "internalType": "bool",
          "name": "isWhiteList",
          "type": "bool"
        }
      ],
      "name": "whitelistModeChanged",
      "type": "event"
    },
    {
      "inputs": [
        {
          "internalType": "address",
          "name": "to",
          "type": "address"
        },
        {
          "internalType": "uint256",
          "name": "tokenId",
          "type": "uint256"
        }
      ],
      "name": "approve",
      "outputs": [],
      "stateMutability": "nonpayable",
      "type": "function"
    },
    {
      "inputs": [
        {
          "internalType": "address",
          "name": "owner",
          "type": "address"
        }
      ],
      "name": "balanceOf",
      "outputs": [
        {
          "internalType": "uint256",
          "name": "",
          "type": "uint256"
        }
      ],
      "stateMutability": "view",
      "type": "function"
    },
    {
      "inputs": [
        {
          "internalType": "string",
          "name": "newBaseTokenURI",
          "type": "string"
        }
      ],
      "name": "changeBaseTokenURI",
      "outputs": [],
      "stateMutability": "nonpayable",
      "type": "function"
    },
    {
      "inputs": [
        {
          "internalType": "bool",
          "name": "newValue",
          "type": "bool"
        }
      ],
      "name": "changeEnableSaleBNB",
      "outputs": [],
      "stateMutability": "nonpayable",
      "type": "function"
    },
    {
      "inputs": [
        {
          "internalType": "bytes32",
          "name": "newRoot",
          "type": "bytes32"
        }
      ],
      "name": "changeRoot",
      "outputs": [],
      "stateMutability": "nonpayable",
      "type": "function"
    },
    {
      "inputs": [
        {
          "internalType": "bool",
          "name": "newState",
          "type": "bool"
        }
      ],
      "name": "changeWhitelistState",
      "outputs": [],
      "stateMutability": "nonpayable",
      "type": "function"
    },
    {
      "inputs": [
        {
          "internalType": "uint256",
          "name": "tokenId",
          "type": "uint256"
        }
      ],
      "name": "getApproved",
      "outputs": [
        {
          "internalType": "address",
          "name": "",
          "type": "address"
        }
      ],
      "stateMutability": "view",
      "type": "function"
    },
    {
      "inputs": [],
      "name": "getBaseTokenURI",
      "outputs": [
        {
          "internalType": "string",
          "name": "",
          "type": "string"
        }
      ],
      "stateMutability": "view",
      "type": "function"
    },
    {
      "inputs": [
        {
          "internalType": "uint8",
          "name": "boxID",
          "type": "uint8"
        }
      ],
      "name": "getBoxPriceBNB",
      "outputs": [
        {
          "internalType": "uint256",
          "name": "",
          "type": "uint256"
        }
      ],
      "stateMutability": "view",
      "type": "function"
    },
    {
      "inputs": [
        {
          "internalType": "uint8",
          "name": "boxID",
          "type": "uint8"
        }
      ],
      "name": "getBoxPriceBURG",
      "outputs": [
        {
          "internalType": "uint256",
          "name": "",
          "type": "uint256"
        }
      ],
      "stateMutability": "view",
      "type": "function"
    },
    {
      "inputs": [
        {
          "internalType": "uint8",
          "name": "boxId",
          "type": "uint8"
        }
      ],
      "name": "getLimitTokenAmountPerBoxType",
      "outputs": [
        {
          "internalType": "uint256",
          "name": "",
          "type": "uint256"
        }
      ],
      "stateMutability": "view",
      "type": "function"
    },
    {
      "inputs": [],
      "name": "getPriceType",
      "outputs": [
        {
          "internalType": "string",
          "name": "",
          "type": "string"
        }
      ],
      "stateMutability": "view",
      "type": "function"
    },
    {
      "inputs": [
        {
          "internalType": "uint8",
          "name": "boxId",
          "type": "uint8"
        }
      ],
      "name": "getTokenSupply",
      "outputs": [
        {
          "internalType": "uint256",
          "name": "",
          "type": "uint256"
        }
      ],
      "stateMutability": "view",
      "type": "function"
    },
    {
      "inputs": [
        {
          "internalType": "uint256",
          "name": "_tokenId",
          "type": "uint256"
        }
      ],
      "name": "getboxTypeById",
      "outputs": [
        {
          "internalType": "uint8",
          "name": "",
          "type": "uint8"
        }
      ],
      "stateMutability": "view",
      "type": "function"
    },
    {
      "inputs": [],
      "name": "initialize",
      "outputs": [],
      "stateMutability": "nonpayable",
      "type": "function"
    },
    {
      "inputs": [
        {
          "internalType": "address",
          "name": "owner",
          "type": "address"
        },
        {
          "internalType": "address",
          "name": "operator",
          "type": "address"
        }
      ],
      "name": "isApprovedForAll",
      "outputs": [
        {
          "internalType": "bool",
          "name": "",
          "type": "bool"
        }
      ],
      "stateMutability": "view",
      "type": "function"
    },
    {
      "inputs": [],
      "name": "isSaleBNBEnabled",
      "outputs": [
        {
          "internalType": "bool",
          "name": "",
          "type": "bool"
        }
      ],
      "stateMutability": "view",
      "type": "function"
    },
    {
      "inputs": [],
      "name": "isWhitelistActive",
      "outputs": [
        {
          "internalType": "bool",
          "name": "",
          "type": "bool"
        }
      ],
      "stateMutability": "view",
      "type": "function"
    },
    {
      "inputs": [
        {
          "internalType": "address",
          "name": "_to",
          "type": "address"
        }
      ],
      "name": "mintForGoldenTicket",
      "outputs": [
        {
          "internalType": "uint256",
          "name": "",
          "type": "uint256"
        }
      ],
      "stateMutability": "nonpayable",
      "type": "function"
    },
    {
      "inputs": [
        {
          "internalType": "uint8",
          "name": "boxType",
          "type": "uint8"
        }
      ],
      "name": "mintNormal",
      "outputs": [
        {
          "internalType": "uint256",
          "name": "",
          "type": "uint256"
        }
      ],
      "stateMutability": "payable",
      "type": "function"
    },
    {
      "inputs": [
        {
          "internalType": "uint8",
          "name": "boxType",
          "type": "uint8"
        }
      ],
      "name": "mintNormalBURG",
      "outputs": [
        {
          "internalType": "uint256",
          "name": "",
          "type": "uint256"
        }
      ],
      "stateMutability": "nonpayable",
      "type": "function"
    },
    {
      "inputs": [
        {
          "internalType": "address",
          "name": "_to",
          "type": "address"
        },
        {
          "internalType": "uint8",
          "name": "boxType",
          "type": "uint8"
        }
      ],
      "name": "mintOwner",
      "outputs": [
        {
          "internalType": "uint256",
          "name": "",
          "type": "uint256"
        }
      ],
      "stateMutability": "nonpayable",
      "type": "function"
    },
    {
      "inputs": [
        {
          "internalType": "bytes32[]",
          "name": "proof",
          "type": "bytes32[]"
        },
        {
          "internalType": "uint8",
          "name": "boxType",
          "type": "uint8"
        }
      ],
      "name": "mintWhitelist",
      "outputs": [],
      "stateMutability": "payable",
      "type": "function"
    },
    {
      "inputs": [],
      "name": "name",
      "outputs": [
        {
          "internalType": "string",
          "name": "",
          "type": "string"
        }
      ],
      "stateMutability": "view",
      "type": "function"
    },
    {
      "inputs": [],
      "name": "owner",
      "outputs": [
        {
          "internalType": "address",
          "name": "",
          "type": "address"
        }
      ],
      "stateMutability": "view",
      "type": "function"
    },
    {
      "inputs": [
        {
          "internalType": "uint256",
          "name": "tokenId",
          "type": "uint256"
        }
      ],
      "name": "ownerOf",
      "outputs": [
        {
          "internalType": "address",
          "name": "",
          "type": "address"
        }
      ],
      "stateMutability": "view",
      "type": "function"
    },
    {
      "inputs": [],
      "name": "pause",
      "outputs": [
        {
          "internalType": "bool",
          "name": "",
          "type": "bool"
        }
      ],
      "stateMutability": "nonpayable",
      "type": "function"
    },
    {
      "inputs": [],
      "name": "paused",
      "outputs": [
        {
          "internalType": "bool",
          "name": "",
          "type": "bool"
        }
      ],
      "stateMutability": "view",
      "type": "function"
    },
    {
      "inputs": [],
      "name": "renounceOwnership",
      "outputs": [],
      "stateMutability": "nonpayable",
      "type": "function"
    },
    {
      "inputs": [
        {
          "internalType": "address",
          "name": "from",
          "type": "address"
        },
        {
          "internalType": "address",
          "name": "to",
          "type": "address"
        },
        {
          "internalType": "uint256",
          "name": "tokenId",
          "type": "uint256"
        }
      ],
      "name": "safeTransferFrom",
      "outputs": [],
      "stateMutability": "nonpayable",
      "type": "function"
    },
    {
      "inputs": [
        {
          "internalType": "address",
          "name": "from",
          "type": "address"
        },
        {
          "internalType": "address",
          "name": "to",
          "type": "address"
        },
        {
          "internalType": "uint256",
          "name": "tokenId",
          "type": "uint256"
        },
        {
          "internalType": "bytes",
          "name": "_data",
          "type": "bytes"
        }
      ],
      "name": "safeTransferFrom",
      "outputs": [],
      "stateMutability": "nonpayable",
      "type": "function"
    },
    {
      "inputs": [
        {
          "internalType": "address",
          "name": "operator",
          "type": "address"
        },
        {
          "internalType": "bool",
          "name": "approved",
          "type": "bool"
        }
      ],
      "name": "setApprovalForAll",
      "outputs": [],
      "stateMutability": "nonpayable",
      "type": "function"
    },
    {
      "inputs": [
        {
          "internalType": "address",
          "name": "_newAddress",
          "type": "address"
        }
      ],
      "name": "setBURGAddress",
      "outputs": [
        {
          "internalType": "bool",
          "name": "",
          "type": "bool"
        }
      ],
      "stateMutability": "nonpayable",
      "type": "function"
    },
    {
      "inputs": [
        {
          "internalType": "bytes4",
          "name": "interfaceId",
          "type": "bytes4"
        }
      ],
      "name": "supportsInterface",
      "outputs": [
        {
          "internalType": "bool",
          "name": "",
          "type": "bool"
        }
      ],
      "stateMutability": "view",
      "type": "function"
    },
    {
      "inputs": [],
      "name": "symbol",
      "outputs": [
        {
          "internalType": "string",
          "name": "",
          "type": "string"
        }
      ],
      "stateMutability": "view",
      "type": "function"
    },
    {
      "inputs": [
        {
          "internalType": "uint256",
          "name": "index",
          "type": "uint256"
        }
      ],
      "name": "tokenByIndex",
      "outputs": [
        {
          "internalType": "uint256",
          "name": "",
          "type": "uint256"
        }
      ],
      "stateMutability": "view",
      "type": "function"
    },
    {
      "inputs": [
        {
          "internalType": "address",
          "name": "owner",
          "type": "address"
        },
        {
          "internalType": "uint256",
          "name": "index",
          "type": "uint256"
        }
      ],
      "name": "tokenOfOwnerByIndex",
      "outputs": [
        {
          "internalType": "uint256",
          "name": "",
          "type": "uint256"
        }
      ],
      "stateMutability": "view",
      "type": "function"
    },
    {
      "inputs": [
        {
          "internalType": "uint256",
          "name": "_tokenId",
          "type": "uint256"
        }
      ],
      "name": "tokenURI",
      "outputs": [
        {
          "internalType": "string",
          "name": "",
          "type": "string"
        }
      ],
      "stateMutability": "view",
      "type": "function"
    },
    {
      "inputs": [],
      "name": "totalSupply",
      "outputs": [
        {
          "internalType": "uint256",
          "name": "",
          "type": "uint256"
        }
      ],
      "stateMutability": "view",
      "type": "function"
    },
    {
      "inputs": [
        {
          "internalType": "address",
          "name": "from",
          "type": "address"
        },
        {
          "internalType": "address",
          "name": "to",
          "type": "address"
        },
        {
          "internalType": "uint256",
          "name": "tokenId",
          "type": "uint256"
        }
      ],
      "name": "transferFrom",
      "outputs": [],
      "stateMutability": "nonpayable",
      "type": "function"
    },
    {
      "inputs": [
        {
          "internalType": "address",
          "name": "newOwner",
          "type": "address"
        }
      ],
      "name": "transferOwnership",
      "outputs": [],
      "stateMutability": "nonpayable",
      "type": "function"
    },
    {
      "inputs": [],
      "name": "unpause",
      "outputs": [
        {
          "internalType": "bool",
          "name": "",
          "type": "bool"
        }
      ],
      "stateMutability": "nonpayable",
      "type": "function"
    },
    {
      "inputs": [
        {
          "internalType": "uint256[]",
          "name": "_newBoxPricesBNB",
          "type": "uint256[]"
        }
      ],
      "name": "updateBoxPricesBNB",
      "outputs": [
        {
          "internalType": "bool",
          "name": "",
          "type": "bool"
        }
      ],
      "stateMutability": "nonpayable",
      "type": "function"
    },
    {
      "inputs": [
        {
          "internalType": "uint256[]",
          "name": "_newBoxPricesBURG",
          "type": "uint256[]"
        }
      ],
      "name": "updateBoxPricesBURG",
      "outputs": [
        {
          "internalType": "bool",
          "name": "",
          "type": "bool"
        }
      ],
      "stateMutability": "nonpayable",
      "type": "function"
    },
    {
      "inputs": [
        {
          "internalType": "bytes32",
          "name": "leaf",
          "type": "bytes32"
        },
        {
          "internalType": "bytes32[]",
          "name": "proof",
          "type": "bytes32[]"
        }
      ],
      "name": "verifyWhitelist",
      "outputs": [
        {
          "internalType": "bool",
          "name": "",
          "type": "bool"
        }
      ],
      "stateMutability": "view",
      "type": "function"
    },
    {
      "inputs": [
        {
          "internalType": "address",
          "name": "_owner",
          "type": "address"
        }
      ],
      "name": "walletOfOwner",
      "outputs": [
        {
          "internalType": "uint256[]",
          "name": "",
          "type": "uint256[]"
        }
      ],
      "stateMutability": "view",
      "type": "function"
    },
    {
      "inputs": [],
      "name": "whitelistRoot",
      "outputs": [
        {
          "internalType": "bytes32",
          "name": "",
          "type": "bytes32"
        }
      ],
      "stateMutability": "view",
      "type": "function"
    },
    {
      "inputs": [],
      "name": "withdraw",
      "outputs": [],
      "stateMutability": "nonpayable",
      "type": "function"
    }
  ],
  "bytecode": "0x60806040523480156200001157600080fd5b50600054610100900460ff16806200002c575060005460ff16155b620000945760405162461bcd60e51b815260206004820152602e60248201527f496e697469616c697a61626c653a20636f6e747261637420697320616c72656160448201526d191e481a5b9a5d1a585b1a5e995960921b606482015260840160405180910390fd5b600054610100900460ff16158015620000b7576000805461ffff19166101011790555b8015620000ca576000805461ff00191690555b5061387f80620000db6000396000f3fe6080604052600436106102935760003560e01c80637f4d058d1161015a578063bdc32be0116100c1578063e0d5f5db1161007a578063e0d5f5db146107b0578063e40e97a7146107d0578063e985e9c5146107f0578063f09542b314610839578063f1859b8c1461084c578063f2fde38b1461086157600080fd5b8063bdc32be014610708578063c87b56dd1461071d578063d124d28f1461073d578063d27e3ebe1461075d578063d883656a1461077d578063d9583b9f1461079057600080fd5b80638d79cc48116101135780638d79cc48146106555780638da5cb5b1461067557806395d89b4114610693578063a22cb465146106a8578063a69a6e82146106c8578063b88d4fde146106e857600080fd5b80637f4d058d14610599578063810b4551146105b95780638129fc1c146105d95780638456cb59146105ee57806384b70ecb146106035780638cba90b01461062357600080fd5b80633d59cd60116101fe5780635c975abb116101b75780635c975abb146104ec5780636352211e1461050457806370a0823114610524578063715018a61461054457806379d72794146105595780637b125a1d1461057957600080fd5b80633d59cd601461042c5780633f4ba83a1461044c57806342842e0e14610461578063438b6300146104815780634f6ccce7146104ae578063524513d6146104ce57600080fd5b80632f745c59116102505780632f745c5914610388578063329ea90d146103a857806334c9a72b146103c8578063386bfc98146103e15780633b86b5da146103f75780633ccfd60b1461041757600080fd5b806301ffc9a71461029857806306fdde03146102cd578063081812fc146102ef578063095ea7b31461032757806318160ddd1461034957806323b872dd14610368575b600080fd5b3480156102a457600080fd5b506102b86102b3366004612f4d565b610881565b60405190151581526020015b60405180910390f35b3480156102d957600080fd5b506102e26108ac565b6040516102c49190612fc2565b3480156102fb57600080fd5b5061030f61030a366004612fd5565b61093e565b6040516001600160a01b0390911681526020016102c4565b34801561033357600080fd5b50610347610342366004613005565b6109d8565b005b34801561035557600080fd5b506099545b6040519081526020016102c4565b34801561037457600080fd5b5061034761038336600461302f565b610aee565b34801561039457600080fd5b5061035a6103a3366004613005565b610b1f565b3480156103b457600080fd5b506102b86103c336600461313f565b610bb5565b3480156103d457600080fd5b506101635460ff166102b8565b3480156103ed57600080fd5b506101645461035a565b34801561040357600080fd5b5061035a610412366004613196565b610c67565b34801561042357600080fd5b50610347610c92565b34801561043857600080fd5b50610347610447366004612fd5565b610d0b565b34801561045857600080fd5b506102b8610d3b565b34801561046d57600080fd5b5061034761047c36600461302f565b610d76565b34801561048d57600080fd5b506104a161049c3660046131b1565b610d91565b6040516102c491906131cc565b3480156104ba57600080fd5b5061035a6104c9366004612fd5565b610e32565b3480156104da57600080fd5b5061016354610100900460ff166102b8565b3480156104f857600080fd5b5060c95460ff166102b8565b34801561051057600080fd5b5061030f61051f366004612fd5565b610eb3565b34801561053057600080fd5b5061035a61053f3660046131b1565b610f2a565b34801561055057600080fd5b50610347610fb1565b34801561056557600080fd5b5061035a610574366004613210565b610fe7565b34801561058557600080fd5b506102b86105943660046131b1565b611025565b3480156105a557600080fd5b5061035a6105b4366004613196565b611077565b3480156105c557600080fd5b5061035a6105d4366004613196565b611090565b3480156105e557600080fd5b506103476110d6565b3480156105fa57600080fd5b506102b86112c9565b34801561060f57600080fd5b5061034761061e366004613251565b6112fe565b34801561062f57600080fd5b5061064361063e366004612fd5565b61133c565b60405160ff90911681526020016102c4565b34801561066157600080fd5b5061035a6106703660046131b1565b6113ae565b34801561068157600080fd5b5060fb546001600160a01b031661030f565b34801561069f57600080fd5b506102e26113e6565b3480156106b457600080fd5b506103476106c336600461326e565b6113f5565b3480156106d457600080fd5b506102b86106e33660046132a5565b6114ba565b3480156106f457600080fd5b5061034761070336600461338c565b611504565b34801561071457600080fd5b506102e261153c565b34801561072957600080fd5b506102e2610738366004612fd5565b61154c565b34801561074957600080fd5b5061035a610758366004613196565b6115e2565b34801561076957600080fd5b5061035a610778366004613196565b611991565b61034761078b366004613407565b6119aa565b34801561079c57600080fd5b506103476107ab366004613251565b611c6e565b3480156107bc57600080fd5b506102b86107cb3660046132a5565b611cf0565b3480156107dc57600080fd5b506103476107eb36600461344b565b611d31565b3480156107fc57600080fd5b506102b861080b366004613493565b6001600160a01b039182166000908152606a6020908152604080832093909416825291909152205460ff1690565b61035a610847366004613196565b611d6f565b34801561085857600080fd5b506102e2611f46565b34801561086d57600080fd5b5061034761087c3660046131b1565b611f92565b60006001600160e01b0319821663780e9d6360e01b14806108a657506108a68261202a565b92915050565b6060606580546108bb906134bd565b80601f01602080910402602001604051908101604052809291908181526020018280546108e7906134bd565b80156109345780601f1061090957610100808354040283529160200191610934565b820191906000526020600020905b81548152906001019060200180831161091757829003601f168201915b5050505050905090565b6000818152606760205260408120546001600160a01b03166109bc5760405162461bcd60e51b815260206004820152602c60248201527f4552433732313a20617070726f76656420717565727920666f72206e6f6e657860448201526b34b9ba32b73a103a37b5b2b760a11b60648201526084015b60405180910390fd5b506000908152606960205260409020546001600160a01b031690565b60006109e382610eb3565b9050806001600160a01b0316836001600160a01b03161415610a515760405162461bcd60e51b815260206004820152602160248201527f4552433732313a20617070726f76616c20746f2063757272656e74206f776e656044820152603960f91b60648201526084016109b3565b336001600160a01b0382161480610a6d5750610a6d813361080b565b610adf5760405162461bcd60e51b815260206004820152603860248201527f4552433732313a20617070726f76652063616c6c6572206973206e6f74206f7760448201527f6e6572206e6f7220617070726f76656420666f7220616c6c000000000000000060648201526084016109b3565b610ae9838361207a565b505050565b610af833826120e8565b610b145760405162461bcd60e51b81526004016109b3906134f8565b610ae98383836121df565b6000610b2a83610f2a565b8210610b8c5760405162461bcd60e51b815260206004820152602b60248201527f455243373231456e756d657261626c653a206f776e657220696e646578206f7560448201526a74206f6620626f756e647360a81b60648201526084016109b3565b506001600160a01b03919091166000908152609760209081526040808320938352929052205490565b600082815b8351811015610c5a576000848281518110610bd757610bd7613549565b6020026020010151905080831015610c1a576040805160208101859052908101829052606001604051602081830303815290604052805190602001209250610c47565b60408051602081018390529081018490526060016040516020818303038152906040528051906020012092505b5080610c5281613575565b915050610bba565b5061016454149392505050565b60006101618260ff1681548110610c8057610c80613549565b90600052602060002001549050919050565b60fb546001600160a01b03163314610cbc5760405162461bcd60e51b81526004016109b390613590565b47610ccf60fb546001600160a01b031690565b6001600160a01b03166108fc829081150290604051600060405180830381858888f19350505050158015610d07573d6000803e3d6000fd5b5050565b60fb546001600160a01b03163314610d355760405162461bcd60e51b81526004016109b390613590565b61016455565b60fb546000906001600160a01b03163314610d685760405162461bcd60e51b81526004016109b390613590565b610d7061238a565b50600190565b610ae983838360405180602001604052806000815250611504565b60606000610d9e83610f2a565b90506000816001600160401b03811115610dba57610dba61306b565b604051908082528060200260200182016040528015610de3578160200160208202803683370190505b50905060005b82811015610e2a57610dfb8582610b1f565b828281518110610e0d57610e0d613549565b602090810291909101015280610e2281613575565b915050610de9565b509392505050565b6000610e3d60995490565b8210610ea05760405162461bcd60e51b815260206004820152602c60248201527f455243373231456e756d657261626c653a20676c6f62616c20696e646578206f60448201526b7574206f6620626f756e647360a01b60648201526084016109b3565b60998281548110610c8057610c80613549565b6000818152606760205260408120546001600160a01b0316806108a65760405162461bcd60e51b815260206004820152602960248201527f4552433732313a206f776e657220717565727920666f72206e6f6e657869737460448201526832b73a103a37b5b2b760b91b60648201526084016109b3565b60006001600160a01b038216610f955760405162461bcd60e51b815260206004820152602a60248201527f4552433732313a2062616c616e636520717565727920666f7220746865207a65604482015269726f206164647265737360b01b60648201526084016109b3565b506001600160a01b031660009081526068602052604090205490565b60fb546001600160a01b03163314610fdb5760405162461bcd60e51b81526004016109b390613590565b610fe5600061241d565b565b60fb546000906001600160a01b031633146110145760405162461bcd60e51b81526004016109b390613590565b61101e838361246f565b9392505050565b60fb546000906001600160a01b031633146110525760405162461bcd60e51b81526004016109b390613590565b5061016580546001600160a01b0319166001600160a01b03831617905560015b919050565b60006101608260ff1681548110610c8057610c80613549565b60006101678260ff16815481106110a9576110a9613549565b6000918252602090912060048204015460039091166008026101000a90046001600160401b031692915050565b600054610100900460ff16806110ef575060005460ff16155b61110b5760405162461bcd60e51b81526004016109b3906135c5565b600054610100900460ff1615801561112d576000805461ffff19166101011790555b61117360405180604001604052806006815260200165213ab933b2b960d11b81525060405180604001604052806006815260200165212aa923a2a960d11b815250612519565b60408051606081018252662386f26fc10000815266470de4df8200006020820152666a94d74f430000918101919091526111b290610160906003612d30565b5060408051606081018252662386f26fc10000815266470de4df8200006020820152666a94d74f430000918101919091526111f290610161906003612d30565b506040518060600160405280602281526020016138286022913980516112219161016291602090910190612d86565b50610163805461ffff191660011790557fa2fc709bf2f4b9cb44b8a9114485d12d4877bb1beedd81f62f4f85a8056480ee61016455604080516060810182526000808252602082018190529181019190915261128290610166906003612dfa565b506040805160608101825261113081526108986020820152610384918101919091526112b390610167906003612e3a565b5080156112c6576000805461ff00191690555b50565b60fb546000906001600160a01b031633146112f65760405162461bcd60e51b81526004016109b390613590565b610d706125a0565b60fb546001600160a01b031633146113285760405162461bcd60e51b81526004016109b390613590565b610163805460ff1916911515919091179055565b6000818152606760205260408120546001600160a01b03166113975760405162461bcd60e51b8152602060048201526014602482015273151bdad95b88191bd95cc81b9bdd08195e1a5cdd60621b60448201526064016109b3565b50600090815261015f602052604090205460ff1690565b60fb546000906001600160a01b031633146113db5760405162461bcd60e51b81526004016109b390613590565b6108a682600161246f565b6060606680546108bb906134bd565b6001600160a01b03821633141561144e5760405162461bcd60e51b815260206004820152601960248201527f4552433732313a20617070726f766520746f2063616c6c65720000000000000060448201526064016109b3565b336000818152606a602090815260408083206001600160a01b03871680855290835292819020805460ff191686151590811790915590519081529192917f17307eab39ab6107e8899845ad3d59bd9653f200f220920489ca2b5937696c31910160405180910390a35050565b60fb546000906001600160a01b031633146114e75760405162461bcd60e51b81526004016109b390613590565b81516114fb90610160906020850190612ee8565b50600192915050565b61150e33836120e8565b61152a5760405162461bcd60e51b81526004016109b3906134f8565b611536848484846125f8565b50505050565b606061016280546108bb906134bd565b6000818152606760205260409020546060906001600160a01b03166115aa5760405162461bcd60e51b8152602060048201526014602482015273151bdad95b88191bd95cc81b9bdd08195e1a5cdd60621b60448201526064016109b3565b6115b261153c565b6115bb8361262b565b6040516020016115cc929190613613565b6040516020818303038152906040529050919050565b60006115f060c95460ff1690565b1561160d5760405162461bcd60e51b81526004016109b390613642565b600261012d5414156116315760405162461bcd60e51b81526004016109b39061366c565b600261012d5561016354610100900460ff16156116865760405162461bcd60e51b815260206004820152601360248201527257686974656c6973742069732061637469766560681b60448201526064016109b3565b6101635460ff16156116da5760405162461bcd60e51b815260206004820152601f60248201527f53616c657320696e204255524720617265206e6f74207065726d69747465640060448201526064016109b3565b6101618260ff16815481106116f1576116f1613549565b60009182526020909120015461016554604051636eb1769f60e11b81523360048201523060248201526001600160a01b039091169063dd62ed3e9060440160206040518083038186803b15801561174757600080fd5b505afa15801561175b573d6000803e3d6000fd5b505050506040513d601f19601f8201168201806040525081019061177f91906136a3565b10156117c55760405162461bcd60e51b81526020600482015260156024820152744e6f7420656e6f7567687420616c6c6f77616e636560581b60448201526064016109b3565b610165546001600160a01b03166323b872dd336117ea60fb546001600160a01b031690565b61182a606461182460086101618a60ff168154811061180b5761180b613549565b906000526020600020015461272890919063ffffffff16565b90612734565b6040516001600160e01b031960e086901b1681526001600160a01b0393841660048201529290911660248301526044820152606401602060405180830381600087803b15801561187957600080fd5b505af115801561188d573d6000803e3d6000fd5b505050506040513d601f19601f820116820180604052508101906118b191906136bc565b5061016560009054906101000a90046001600160a01b03166001600160a01b0316639dc29fac336118f96064611824605c6101618960ff168154811061180b5761180b613549565b6040516001600160e01b031960e085901b1681526001600160a01b0390921660048301526024820152604401602060405180830381600087803b15801561193f57600080fd5b505af1158015611953573d6000803e3d6000fd5b505050506040513d601f19601f8201168201806040525081019061197791906136bc565b506000611984338461246f565b600161012d559392505050565b60006101668260ff1681548110610c8057610c80613549565b60c95460ff16156119cd5760405162461bcd60e51b81526004016109b390613642565b600261012d5414156119f15760405162461bcd60e51b81526004016109b39061366c565b600261012d5561016354610100900460ff16611a4f5760405162461bcd60e51b815260206004820152601760248201527f57686974656c697374206973206e6f742061637469766500000000000000000060448201526064016109b3565b6101608160ff1681548110611a6657611a66613549565b9060005260206000200154341015611ab25760405162461bcd60e51b815260206004820152600f60248201526e2737ba1032b737bab3b43a1021272160891b60448201526064016109b3565b6101678160ff1681548110611ac957611ac9613549565b90600052602060002090600491828204019190066008029054906101000a90046001600160401b03166001600160401b03166101668260ff1681548110611b1257611b12613549565b906000526020600020015410611b6a5760405162461bcd60e51b815260206004820152601b60248201527f4c696d69746174696f6e20686173206265656e2072656163686564000000000060448201526064016109b3565b604080513360601b6bffffffffffffffffffffffff19166020808301919091528251601481840301815260349092019092528051910120600090611bae9084610bb5565b90508015611bc657611bc0338361246f565b50611c00565b60405162461bcd60e51b815260206004820152600f60248201526e139bdd081dda1a5d195b1a5cdd1959608a1b60448201526064016109b3565b336001600160a01b03166108fc6101608460ff1681548110611c2457611c24613549565b906000526020600020015434611c3a91906136d9565b6040518115909202916000818181858888f19350505050158015611c62573d6000803e3d6000fd5b5050600161012d555050565b60fb546001600160a01b03163314611c985760405162461bcd60e51b81526004016109b390613590565b610163805461ff0019166101008315158102919091179182905560405160ff9190920416151581527f52cf77d97507bfe5c826e8a0dd53032bac06a11f9d0db13603d9887ed5cbf2179060200160405180910390a150565b60fb546000906001600160a01b03163314611d1d5760405162461bcd60e51b81526004016109b390613590565b81516114fb90610161906020850190612ee8565b60fb546001600160a01b03163314611d5b5760405162461bcd60e51b81526004016109b390613590565b8051610d0790610162906020840190612d86565b6000611d7d60c95460ff1690565b15611d9a5760405162461bcd60e51b81526004016109b390613642565b600261012d541415611dbe5760405162461bcd60e51b81526004016109b39061366c565b600261012d5561016354610100900460ff1615611e135760405162461bcd60e51b815260206004820152601360248201527257686974656c6973742069732061637469766560681b60448201526064016109b3565b6101635460ff16611e665760405162461bcd60e51b815260206004820152601e60248201527f53616c657320696e20424e4220617265206e6f74207065726d6974746564000060448201526064016109b3565b6101608260ff1681548110611e7d57611e7d613549565b9060005260206000200154341015611ec95760405162461bcd60e51b815260206004820152600f60248201526e2737ba1032b737bab3b43a1021272160891b60448201526064016109b3565b6000611ed5338461246f565b9050336001600160a01b03166108fc6101608560ff1681548110611efb57611efb613549565b906000526020600020015434611f1191906136d9565b6040518115909202916000818181858888f19350505050158015611f39573d6000803e3d6000fd5b50600161012d5592915050565b6101635460609060ff1615611f73575060408051808201909152600381526221272160e91b602082015290565b506040805180820190915260048152634255524760e01b602082015290565b60fb546001600160a01b03163314611fbc5760405162461bcd60e51b81526004016109b390613590565b6001600160a01b0381166120215760405162461bcd60e51b815260206004820152602660248201527f4f776e61626c653a206e6577206f776e657220697320746865207a65726f206160448201526564647265737360d01b60648201526084016109b3565b6112c68161241d565b60006001600160e01b031982166380ac58cd60e01b148061205b57506001600160e01b03198216635b5e139f60e01b145b806108a657506301ffc9a760e01b6001600160e01b03198316146108a6565b600081815260696020526040902080546001600160a01b0319166001600160a01b03841690811790915581906120af82610eb3565b6001600160a01b03167f8c5be1e5ebec7d5bd14f71427d1e84f3dd0314c0f7b2291e5b200ac8c7c3b92560405160405180910390a45050565b6000818152606760205260408120546001600160a01b03166121615760405162461bcd60e51b815260206004820152602c60248201527f4552433732313a206f70657261746f7220717565727920666f72206e6f6e657860448201526b34b9ba32b73a103a37b5b2b760a11b60648201526084016109b3565b600061216c83610eb3565b9050806001600160a01b0316846001600160a01b031614806121a75750836001600160a01b031661219c8461093e565b6001600160a01b0316145b806121d757506001600160a01b038082166000908152606a602090815260408083209388168352929052205460ff165b949350505050565b826001600160a01b03166121f282610eb3565b6001600160a01b03161461225a5760405162461bcd60e51b815260206004820152602960248201527f4552433732313a207472616e73666572206f6620746f6b656e2074686174206960448201526839903737ba1037bbb760b91b60648201526084016109b3565b6001600160a01b0382166122bc5760405162461bcd60e51b8152602060048201526024808201527f4552433732313a207472616e7366657220746f20746865207a65726f206164646044820152637265737360e01b60648201526084016109b3565b6122c7838383612740565b6122d260008261207a565b6001600160a01b03831660009081526068602052604081208054600192906122fb9084906136d9565b90915550506001600160a01b03821660009081526068602052604081208054600192906123299084906136f0565b909155505060008181526067602052604080822080546001600160a01b0319166001600160a01b0386811691821790925591518493918716917fddf252ad1be2c89b69c2b068fc378daa952ba7f163c4a11628f55a4df523b3ef91a4505050565b60c95460ff166123d35760405162461bcd60e51b815260206004820152601460248201527314185d5cd8589b194e881b9bdd081c185d5cd95960621b60448201526064016109b3565b60c9805460ff191690557f5db9ee0a495bf2e6ff9c91a7834c1ba4fdd244a5e8aa4e537bd38aeae4b073aa335b6040516001600160a01b03909116815260200160405180910390a1565b60fb80546001600160a01b038381166001600160a01b0319831681179093556040519116919082907f8be0079c531659141344cd1fd0a4f28419497f9722a3daafe3b4186f6b6457e090600090a35050565b60008061247b60995490565b905061248784826127f8565b600081815261015f60205260409020805460ff191660ff8516908117909155610166805490919081106124bc576124bc613549565b600091825260208220018054916124d283613575565b91905055508260ff1681856001600160a01b03167faabcc1eb354f11e651c87f835e7de6ac847d514718ed76fad480d55d2632992260405160405180910390a49392505050565b600054610100900460ff1680612532575060005460ff16155b61254e5760405162461bcd60e51b81526004016109b3906135c5565b600054610100900460ff16158015612570576000805461ffff19166101011790555b612578612812565b612580612812565b61258a838361287d565b8015610ae9576000805461ff0019169055505050565b60c95460ff16156125c35760405162461bcd60e51b81526004016109b390613642565b60c9805460ff191660011790557f62e78cea01bee320cd4e420270b5ea74000d11b0c9f74754ebdbfc544b05a2586124003390565b6126038484846121df565b61260f84848484612912565b6115365760405162461bcd60e51b81526004016109b390613708565b60608161264f5750506040805180820190915260018152600360fc1b602082015290565b8160005b8115612679578061266381613575565b91506126729050600a83613770565b9150612653565b6000816001600160401b038111156126935761269361306b565b6040519080825280601f01601f1916602001820160405280156126bd576020820181803683370190505b5090505b84156121d7576126d26001836136d9565b91506126df600a86613784565b6126ea9060306136f0565b60f81b8183815181106126ff576126ff613549565b60200101906001600160f81b031916908160001a905350612721600a86613770565b94506126c1565b600061101e8284613798565b600061101e8284613770565b6001600160a01b03831661279b5761279681609980546000838152609a60205260408120829055600182018355919091527f72a152ddfb8e864297c917af52ea6c1c68aead0fee1a62673fcc7e0c94979d000155565b6127be565b816001600160a01b0316836001600160a01b0316146127be576127be8382612a1f565b6001600160a01b0382166127d557610ae981612abc565b826001600160a01b0316826001600160a01b031614610ae957610ae98282612b6b565b610d07828260405180602001604052806000815250612baf565b600054610100900460ff168061282b575060005460ff16155b6128475760405162461bcd60e51b81526004016109b3906135c5565b600054610100900460ff16158015612869576000805461ffff19166101011790555b80156112c6576000805461ff001916905550565b600054610100900460ff1680612896575060005460ff16155b6128b25760405162461bcd60e51b81526004016109b3906135c5565b600054610100900460ff161580156128d4576000805461ffff19166101011790555b82516128e7906065906020860190612d86565b5081516128fb906066906020850190612d86565b508015610ae9576000805461ff0019169055505050565b60006001600160a01b0384163b15612a1457604051630a85bd0160e11b81526001600160a01b0385169063150b7a02906129569033908990889088906004016137b7565b602060405180830381600087803b15801561297057600080fd5b505af19250505080156129a0575060408051601f3d908101601f1916820190925261299d918101906137f4565b60015b6129fa573d8080156129ce576040519150601f19603f3d011682016040523d82523d6000602084013e6129d3565b606091505b5080516129f25760405162461bcd60e51b81526004016109b390613708565b805181602001fd5b6001600160e01b031916630a85bd0160e11b1490506121d7565b506001949350505050565b60006001612a2c84610f2a565b612a3691906136d9565b600083815260986020526040902054909150808214612a89576001600160a01b03841660009081526097602090815260408083208584528252808320548484528184208190558352609890915290208190555b5060009182526098602090815260408084208490556001600160a01b039094168352609781528383209183525290812055565b609954600090612ace906001906136d9565b6000838152609a602052604081205460998054939450909284908110612af657612af6613549565b906000526020600020015490508060998381548110612b1757612b17613549565b6000918252602080832090910192909255828152609a90915260408082208490558582528120556099805480612b4f57612b4f613811565b6001900381819060005260206000200160009055905550505050565b6000612b7683610f2a565b6001600160a01b039093166000908152609760209081526040808320868452825280832085905593825260989052919091209190915550565b612bb98383612be2565b612bc66000848484612912565b610ae95760405162461bcd60e51b81526004016109b390613708565b6001600160a01b038216612c385760405162461bcd60e51b815260206004820181905260248201527f4552433732313a206d696e7420746f20746865207a65726f206164647265737360448201526064016109b3565b6000818152606760205260409020546001600160a01b031615612c9d5760405162461bcd60e51b815260206004820152601c60248201527f4552433732313a20746f6b656e20616c7265616479206d696e7465640000000060448201526064016109b3565b612ca960008383612740565b6001600160a01b0382166000908152606860205260408120805460019290612cd29084906136f0565b909155505060008181526067602052604080822080546001600160a01b0319166001600160a01b03861690811790915590518392907fddf252ad1be2c89b69c2b068fc378daa952ba7f163c4a11628f55a4df523b3ef908290a45050565b828054828255906000526020600020908101928215612d76579160200282015b82811115612d76578251829066ffffffffffffff16905591602001919060010190612d50565b50612d82929150612f22565b5090565b828054612d92906134bd565b90600052602060002090601f016020900481019282612db45760008555612d76565b82601f10612dcd57805160ff1916838001178555612d76565b82800160010185558215612d76579182015b82811115612d76578251825591602001919060010190612ddf565b828054828255906000526020600020908101928215612d76579160200282015b82811115612d76578251829060ff16905591602001919060010190612e1a565b82805482825590600052602060002090600301600490048101928215612d765791602002820160005b83821115612ea857835183826101000a8154816001600160401b03021916908361ffff1602179055509260200192600801602081600701049283019260010302612e63565b8015612edb5782816101000a8154906001600160401b030219169055600801602081600701049283019260010302612ea8565b5050612d82929150612f22565b828054828255906000526020600020908101928215612d765791602002820182811115612d76578251825591602001919060010190612ddf565b5b80821115612d825760008155600101612f23565b6001600160e01b0319811681146112c657600080fd5b600060208284031215612f5f57600080fd5b813561101e81612f37565b60005b83811015612f85578181015183820152602001612f6d565b838111156115365750506000910152565b60008151808452612fae816020860160208601612f6a565b601f01601f19169290920160200192915050565b60208152600061101e6020830184612f96565b600060208284031215612fe757600080fd5b5035919050565b80356001600160a01b038116811461107257600080fd5b6000806040838503121561301857600080fd5b61302183612fee565b946020939093013593505050565b60008060006060848603121561304457600080fd5b61304d84612fee565b925061305b60208501612fee565b9150604084013590509250925092565b634e487b7160e01b600052604160045260246000fd5b604051601f8201601f191681016001600160401b03811182821017156130a9576130a961306b565b604052919050565b60006001600160401b038211156130ca576130ca61306b565b5060051b60200190565b600082601f8301126130e557600080fd5b813560206130fa6130f5836130b1565b613081565b82815260059290921b8401810191818101908684111561311957600080fd5b8286015b84811015613134578035835291830191830161311d565b509695505050505050565b6000806040838503121561315257600080fd5b8235915060208301356001600160401b0381111561316f57600080fd5b61317b858286016130d4565b9150509250929050565b803560ff8116811461107257600080fd5b6000602082840312156131a857600080fd5b61101e82613185565b6000602082840312156131c357600080fd5b61101e82612fee565b6020808252825182820181905260009190848201906040850190845b81811015613204578351835292840192918401916001016131e8565b50909695505050505050565b6000806040838503121561322357600080fd5b61322c83612fee565b915061323a60208401613185565b90509250929050565b80151581146112c657600080fd5b60006020828403121561326357600080fd5b813561101e81613243565b6000806040838503121561328157600080fd5b61328a83612fee565b9150602083013561329a81613243565b809150509250929050565b600060208083850312156132b857600080fd5b82356001600160401b038111156132ce57600080fd5b8301601f810185136132df57600080fd5b80356132ed6130f5826130b1565b81815260059190911b8201830190838101908783111561330c57600080fd5b928401925b8284101561332a57833582529284019290840190613311565b979650505050505050565b60006001600160401b0383111561334e5761334e61306b565b613361601f8401601f1916602001613081565b905082815283838301111561337557600080fd5b828260208301376000602084830101529392505050565b600080600080608085870312156133a257600080fd5b6133ab85612fee565b93506133b960208601612fee565b92506040850135915060608501356001600160401b038111156133db57600080fd5b8501601f810187136133ec57600080fd5b6133fb87823560208401613335565b91505092959194509250565b6000806040838503121561341a57600080fd5b82356001600160401b0381111561343057600080fd5b61343c858286016130d4565b92505061323a60208401613185565b60006020828403121561345d57600080fd5b81356001600160401b0381111561347357600080fd5b8201601f8101841361348457600080fd5b6121d784823560208401613335565b600080604083850312156134a657600080fd5b6134af83612fee565b915061323a60208401612fee565b600181811c908216806134d157607f821691505b602082108114156134f257634e487b7160e01b600052602260045260246000fd5b50919050565b60208082526031908201527f4552433732313a207472616e736665722063616c6c6572206973206e6f74206f6040820152701ddb995c881b9bdc88185c1c1c9bdd9959607a1b606082015260800190565b634e487b7160e01b600052603260045260246000fd5b634e487b7160e01b600052601160045260246000fd5b60006000198214156135895761358961355f565b5060010190565b6020808252818101527f4f776e61626c653a2063616c6c6572206973206e6f7420746865206f776e6572604082015260600190565b6020808252602e908201527f496e697469616c697a61626c653a20636f6e747261637420697320616c72656160408201526d191e481a5b9a5d1a585b1a5e995960921b606082015260800190565b60008351613625818460208801612f6a565b835190830190613639818360208801612f6a565b01949350505050565b60208082526010908201526f14185d5cd8589b194e881c185d5cd95960821b604082015260600190565b6020808252601f908201527f5265656e7472616e637947756172643a207265656e7472616e742063616c6c00604082015260600190565b6000602082840312156136b557600080fd5b5051919050565b6000602082840312156136ce57600080fd5b815161101e81613243565b6000828210156136eb576136eb61355f565b500390565b600082198211156137035761370361355f565b500190565b60208082526032908201527f4552433732313a207472616e7366657220746f206e6f6e20455243373231526560408201527131b2b4bb32b91034b6b83632b6b2b73a32b960711b606082015260800190565b634e487b7160e01b600052601260045260246000fd5b60008261377f5761377f61375a565b500490565b6000826137935761379361375a565b500690565b60008160001904831182151516156137b2576137b261355f565b500290565b6001600160a01b03858116825284166020820152604081018390526080606082018190526000906137ea90830184612f96565b9695505050505050565b60006020828403121561380657600080fd5b815161101e81612f37565b634e487b7160e01b600052603160045260246000fdfe687474703a2f2f6c6f63616c686f73743a383038302f6170692f6d6574616474612fa26469706673582212200aaaca9ed4775c4ffdd4053bc309f18d68b2836971a7d37233fe1e7864d86df964736f6c63430008090033",
  "linkReferences": {},
  "deployedLinkReferences": {}
}